:100000003DEF1CF00000000000EF00F000000000D9
:0A0010000000000000000000F3D71C
:0A001C000D0E0D6E0D2EFED7120022
:0A00260000000000000000001200BE
:10003000C7B409D01F0EC514016E0150000A03E1B8
:0A004000010E006E01D0006A1200EC
:0A004A00E8DF8188E6DF81981200EC
:0A005400000E82B8010E006E1200CB
:0A005E00000E82B6010E006E1200C3
:0A006800000E82BA010E006E1200B5
:0A007200000E82BC010E006E1200A9
:0A007C00000E84B2010E006E1200A7
:0A008600000E80B2010E006E1200A1
:0A009000000E82B8010E006E12008F
:0A009A00000E80B8010E006E120087
:0A00A400000E82B6010E006E12007D
:0A00AE00000E82B4010E006E120075
:0A00B800000E84B6010E006E120067
:0A00C200000E80B4010E006E120063
:0A00CC00000E84B4010E006E120055
:0A00D600000E82B8010E006E120049
:0A00E000000E82B6010E006E120041
:0A00EA00000E82BE010E006E12002F
:0A00F400000E81B2010E006E120032
:0A00FE00000E82BC010E006E12001D
:0A010800000E82B8010E006E120016
:0A011200000E82B6010E006E12000E
:0A011C00000E82BE010E006E1200FC
:0A012600000E9EBA010E006E1200DA
:10013000AECF01F0ABA202D0AB98AB8801C000F00B
:020140001200AB
:0A014200000EACB2010E006E1200B8
:0A014C00000EA4BA010E006E1200AE
:100156001DCF01F00F0122A302D02299228901C0EE
:0401660000F0120093
:10016A0081948196B80E01018D11836E69DF1200A8
:10017A007F0E01018D15016E01C08DF101AC03D016
:0C018A008180819202D08190818212005D
:100196007F0E01018D15006E00C08DF18194819650
:1001A600BF0E001600C08DF1008C00C08DF100C09E
:0601B60083FF48DF120088
:0E01BC008198818481968DC183FF41DF1200FE
:1001CA00FF0E956E2BDF2ADF8184819881868188D4
:1001DA0020DF83CF8DF18198819620DF1FDF956A1A
:0601EA008DC100F01200BF
:0A01F000000E82B8010E006E12002E
:0A01FA00000E82B6010E006E120026
:0A020400000E82BA010E006E120017
:0A020E00000E81B0010E006E120018
:0A021800000E82B2010E006E12000B
:1002220001018D6B8E6B8E51120802E18D518E0889
:1002320008E3FDDE005201E004D001018D4B8E2B5C
:10024200F2D70101120E8E5D02E18F0E8D5D03E386
:100252007B0E006E05D0C580C5A001D0FDD7006A17
:02026200120088
:0C026400000E0F0121B3010E006E12000D
:0A027000000E80B0010E006E1200B7
:0A027A00000E84B0010E006E1200A9
:0A028400000E82B0010E006E1200A1
:0A028E00000E82BA010E006E12008D
:100298009E968DC1C9FFC7A401D0FDD79EB601D0D7
:1002A800FDD7C5BC02D0006A03D0C584020E006E1B
:0202B800120032
:0A02BA00000E82B8010E006E120063
:1002C4009E96C5869EB601D0FDD7C9CF01F0010127
:1002D4008D51000A02E1C58A01D0C59A9E96C5884F
:0C02E4009EB601D0FDD701C000F0120052
:0A02F000C582C5A201D0FDD712009F
:0402FA00C5841200A5
:0A02FE00000E86B4010E006E12001F
:0A030800000E81B4010E006E120019
:0A031200000E86B0010E006E12000E
:0A031C00000E86B2010E006E120002
:0A032600000E82B6010E006E1200F8
:080330000AAE029E000E12004D
:100338000B820BAEA6EF01F0036802680168006843
:080348000A360232FF0E12001A
:100350000B840BAEB3EF01F0010E036E026A016A6B
:0A036000006A0A360232FF0E120096
:10036A00000E0101875D0AE387517F0807E3000E4B
:10037A00885D04E388513F0801E301D04AD087C170
:10038A008DF1F6DE88C18DF18D338D9F8D338D9F72
:10039A008D338D9FE5DE87C18DF1F8DE11DF00C058
:1003AA008CF10EDF00C08CF188C18DF18D338D9FE9
:1003BA008D338D9F8D338D9FD3DE87C18DF1E6DE20
:1003CA00070E8815006E00C08AF100C001F0010E08
:1003DA00006E015004E000360090FF0FFBD700C00A
:1003EA008AF1001C8B6F09D08B518C170FD08A5160
:1003FA008C130CD08A518C1B09D08951000AF4E065
:10040A008951010AF4E08951020AF4E08CC18DF1A4
:04041A00D0DE12001E
:10041E00F250026EF29E0500FF6A0150FE6E005011
:08042E00FD6E02BEF28E120009
:0E043600026A016A006A086A036A000E120078
:100444000101856B866B7EC183F17FC184F17DC11F
:1004540000F00036009003C1E1FF04C1E2FF00C0D8
:10046400E6FF01C100F002C101F0D7DF0050010135
:100474008513000E861380C100F081C101F0010EC6
:10048400805F000E815B0050011017E003C1E1FFA3
:1004940004C1E2FF83C1E9FF84C1EAFFEECFE6FFB6
:1004A40001C100F002C101F0B8DF00500101851361
:1004B400000E8613834B842BDED78251000A05E19C
:1004C40009C100F00AC101F0A8DF01018251010A4B
:1004D40005E105C100F006C101F09FDF85C100F010
:0604E40086C101F01200C8
:1004EA00000E01017F5D04E37F513F0801E301D063
:1004FA0027D0000E7D5DD8A07D6B7D517F0802E27A
:10050A007F0E7D6F000E7E5DD8A07E6B7E517F08C8
:10051A0002E27F0E7E6F7D517E5D06E27DC181F132
:10052A007EC17DF181C17EF17D517E5D09E37DC190
:10053A0087F17FC188F180C189F112DF7D2BF4D761
:02054A0012009D
:10054C00220E0C6E086A096A0A6A0B6A0C06D8B489
:10055C001FD0D8900B320A320932083203320232E1
:10056C0001320032D8A0F2D70C06D8B409D004500E
:10057C0008260550092206500A2207500B22EAD7FA
:10058C00045008260550092206500A2207500B2257
:02059C0012004B
:10059E00340E0C6EF10E0D6E0D2EFED70C2EFCD7FA
:0605AE0000000000120035
:1005B40001017D6B7E6BF8C000F0F9C001F02DDF06
:1005C40000C07DF1000E01017E6F7DC100F07EC18F
:0405D40001F0120020
:1005D8000B800BAEF8EF02F0026A0AAEFF0E026E55
:0C05E800016E006E0A360232FF0E120097
:1005F400949894968B988B9694889486C79EC79C5F
:06060400380EC66E120064
:10060A000101856B866B7EC183F17FC184F17DC157
:10061A0000F000360090008003C1E1FF04C1E2FF50
:10062A0000C0E6FF01C100F002C101F0F3DE005094
:10063A0001018513000E8613010E805F000E815B97
:10064A008051811115E0FEC0E1FFFFC0E2FF010EFB
:10065A00E66EFCC000F0FDC001F0DCDE83C1E1FF04
:10066A0084C1E2FF00C0E6FF0101834B842BE4D77B
:10067A00FEC0E1FFFFC0E2FFE66AFCC000F0FDC079
:10068A0001F0C8DE83C1E1FF84C1E2FF00C0E6FFDA
:10069A0001018251000A05E109C100F00AC101F015
:1006AA00B9DE01018251010A05E105C100F006C166
:0E06BA0001F0B0DE85C100F086C101F0120033
:1006C800FF0E0101166FFF0E176FFF0E186FFF0E5A
:1006D800196F560E126F010E136F000E146F000E75
:1006E800156F4C0E1E6F010E1F6F000E206F000E4F
:1006F800216F640E1A6F020E1B6F000E1C6F000E26
:100708001D6F0F01218B900E226F98849892A4AAD6
:0A07180003D01DCF00F0FBD7120044
:10072200000E01017F5D04E37F517F0801E301D0E8
:1007320027D0000E7D5DD8A07D6B7D513F0802E27F
:100742003F0E7D6F000E7E5DD8A07E6B7E513F080E
:1007520002E23F0E7E6F7D517E5D06E27DC181F138
:100762007EC17DF181C17EF17D517E5D09E37FC154
:1007720087F17DC188F180C189F1F6DD7D2BF4D747
:02078200120063
:100784000CB004EF04F00CA2AAEF04F00E6A000E01
:1007940002641BEF04F0F00E0214D8A4E6EF03F099
:1007A400023A01380F0B02260138F00B016E0038B3
:1007B4000F0B01260038F00B006E08380F0B0026D3
:1007C4000838F00B086E0E84D89002BEFFEF03F0D9
:1007D40008360036013602360E2A02BEFFEF03F059
:1007E40008360036013602360E2A02BEFFEF03F049
:1007F40008360036013602360E2A0E500364A0EF86
:1008040004F0035E0BBC08AEA5EF04F0D880800EA4
:1008140008640030000E002201220222D8A0A5EFB5
:1008240004F0023201320032034AAAEF04F0A5EFC9
:1008340004F001C002F000C001F008C000F0086A32
:10084400000E0E86026452EF04F0F00E0214D8A4D7
:100854003AEF04F0023A01380F0B02260138F00B8C
:10086400016E00380F0B01260038F00B006E0E8469
:10087400D89002BEFFEF03F00036013602360E2A8E
:1008840002BEFFEF03F00036013602360E2A02BE26
:10089400FFEF03F00036013602360E2AFFEF03F0B5
:1008A40001C002F000C001F0006A000E0E960E882E
:1008B40002647FEF04F0F00E0214D8A46AEF04F08F
:1008C400023A01380F0B02260138F00B016E0E8438
:1008D400D89002BEFFEF03F0013602360E2A02BEA4
:1008E400FFEF03F0013602360E2A02BEFFEF03F0DB
:1008F400013602360E2AFFEF03F001C002F0016A4E
:10090400000E0E860264AFEF04F0F00E0214D8A4B9
:100914008EEF04F0023A0E84D89002BEFFEF03F08B
:1009240002360E2A02BEFFEF03F002360E2A02BE82
:10093400FFEF03F002360E2AFFEF03F0010E0C6EF8
:1009440005DDB2EF04F0020E0C6EF0DCB2EF04F041
:10095400040E0C6EEFDCB2EF04F0080E0C6E69DDD1
:0209640012007F
:10096600F60E0101166F230E176F610E186F010E3A
:10097600196F300E126F010E136F000E146F000EFA
:10098600156F260E1E6F010E1F6F000E206F000ED4
:10099600216F420E1A6F010E1B6F000E1C6F000EA8
:1009A6001D6FAC8A900EAB6E948E949C9EAA03D05B
:0809B600AECF00F0FBD71200E8
:1009BE000B6A0A6A096A00500402F4CF09F0F3CFF9
:1009CE0008F001500502F4CF0BF0F3CF0AF00050FF
:1009DE000502F3500926F4500A22E86A0B22015050
:1009EE000402F3500926F4500A22E86A0B2208C0CA
:1009FE0000F009C001F00AC002F00BC003F01200B3
:100A0E0074C175F1D0DDF7C07DF1750E7E6F010EEC
:100A1E007F6F010E806F000E816F010E826F0BDDF6
:100A2E00B7DDF7C07DF1760E01017E6F010E7F6F8F
:100A3E00010E806F000E816F826BE0DDA9DD76C145
:040A4E0000F01200A2
:100A520021D0CF0EAF6EAC8485DF6BD0670EAF6E48
:100A6200AC8480DF66D0330EAF6EAC847BDF61D0A6
:100A7200190EAF6EAC8476DF5CD0100EAF6EAC8414
:100A820071DF57D0080EAF6EAC846CDF52D0060E09
:100A9200006E58D00101000E006E771908E1005077
:100AA200761905E1120E751902E17451C00AD1E0FE
:100AB200000E006E771908E10050761905E1250E47
:100AC200751902E17451800AC9E0000E006E7719AF
:100AD20008E10050761905E14B0E751902E17451D7
:100AE200000AC1E0000E006E771908E10050761985
:100AF20005E1960E751902E17451000AB9E0000E83
:100B0200006E771908E10050761905E1E10E7519BA
:100B120002E17451000AB1E07751000A08E176510E
:100B2200010A05E17551C20A02E17451000AAAE004
:100B3200AED7F60E326F230E336F610E346F010E95
:060B4200356F006A12008D
:100B480074C177F175C178F176C179F177C100F098
:100B580078C101F079C102F000C0F6FF01C0F7FFCB
:100B680002C0F8FF0900F5CFF8F00900F5CFF9F059
:100B78000900F5CFFAF00900F5CFFBF077C100F0D6
:100B880078C101F079C102F0040E0024F66E000E5F
:100B98000120F76E000E0220F86E0900F5CF09F16A
:100BA8000900F5CF0AF10900F5CF0BF10900F5CFDF
:100BB8000CF177C100F078C101F079C102F0080E9C
:100BC8000024F66E000E0120F76E000E0220F86E6B
:100BD8000900F5CF05F10900F5CF06F10900F5CFB9
:100BE80007F10900F5CF08F177C100F078C101F0ED
:100BF80079C102F00C0E0024F66E000E0120F76E8B
:100C0800000E0220F86E0900F5CF01F10900F5CFBA
:100C180002F10900F5CF03F10900F5CF04F177C11E
:100C280000F078C101F079C102F0100E0024F66ED0
:100C3800000E0120F76E000E0220F86E0900F5CFB5
:100C4800FCF00900F5CFFDF00900F5CFFEF0090032
:060C5800F5CFFFF01200D1
:100C5E000050086E0150006E0250016E0350026E7D
:100C6E00036A0B6A0C6A9E0E036E0A6A02AE4CEFA2
:100C7E0006F0081E001E011E021E082AD8B4002A05
:100C8E00D8B4012AD8B4022A0A8E020E0C6E73DD75
:020C9E00120042
:100CA00074C17DF176C17EF175C17FF178C180F1AB
:100CB0001CDC74C17DF176C17EF177C17FF178C112
:100CC00080F113DC75C17DF177C17EF174C17FF1D4
:100CD00078C180F126DD75C17DF177C17EF176C1E5
:0A0CE0007FF178C180F11DDD1200E4
:100CEA00819081820101766B7651070810E376C103
:100CFA008DF1B5EC00F0756B75513F0806E374C1D0
:100D0A008DF1DEEC00F0752BF7D7762BEDD78192BB
:100D1A008180766B7651070810E376C18DF1B5ECC8
:100D2A0000F0756B75513F0806E374C18DF1DEEC76
:0C0D3A0000F0752BF7D7762BEDD71200D8
:100D460074C177F175C178F176C179F177C100F098
:100D560078C101F079C102F0300E0026000E0122A2
:100D6600022200C07AF101C07BF102C07CF1070EBD
:100D7600006E000E016E026E036E040E046E000E0F
:100D8600056E066E076EA6EC02F001017A5100248C
:100D9600F66E7B510120F76E7C510220F86E090039
:100DA600F5CFF3F00900F5CFF4F00900F5CFF5F033
:100DB6000900F5CFF6F077C100F078C101F079C1EE
:100DC60002F000C07AF101C07BF102C07CF1010E95
:100DD600006E000E016E026E036E040E046E000EAF
:100DE600056E066E076EA6EC02F07A510024F66ECA
:100DF6007B510120F76E7C510220F86E0900F5CF79
:100E0600EFF00900F5CFF0F00900F5CFF1F0090099
:060E1600F5CFF2F012001E
:100E1C000A6A0350D8A40A800750D8A40A820A5040
:100E2C00D8B471EF07F0030AD8B42AEF07F00AB070
:100E3C0025EF07F006AE6FEF07F06DEF07F002AE8F
:100E4C006DEF07F06FEF07F00250800B0A6E029EF9
:100E5C000650800B069E0A18D8B43BEF07F00A50D8
:100E6C00D8B46DEF07F06FEF07F00750035CD8B400
:100E7C0045EF07F0D8A061EF07F067EF07F00650D9
:100E8C00025CD8B44FEF07F0D8A061EF07F067EF22
:100E9C0007F00550015CD8B459EF07F0D8A061EF0A
:100EAC0007F067EF07F00450005CD8B471EF07F05F
:100EBC00D8B067EF07F00A52D8B46FEF07F06DEFB8
:100ECC0007F00A52D8B46DEF07F06FEF07F0D88037
:0E0EDC001200D8901200D880D88412001200A4
:100EEA000B6A0C6A086A0350D8B4F9EF07F002C01B
:100EFA000AF0028E9E0E035E03AEE9EF07F0036C62
:100F0A00080E035CD8A0B6EF07F0036E083600C0DF
:100F1A0008F001C000F002C001F0026A080E035C8A
:100F2A00D8A0B6EF07F0036E083600C008F001C07B
:100F3A0000F0016A080E035CD8A0B6EF07F0036E52
:100F4A00083600C008F0006A080E035CD8A0B6EFA5
:100F5A0007F0036E0836086A0350D8A4D890C2EF87
:100F6A0007F00350D8B4C2EF07F0D890023201322A
:100F7A0000320832032EBAEF07F00BBC08A0D3EFF9
:100F8A0007F0D8A0D3EF07F0082AD8B4002AD8B4BB
:100F9A00012AD8B4022A02BEFDEF07F00AAEF9EF21
:100FAA0007F0021E011E001E081E082AD8B4002AD5
:100FBA00D8B4012AD8B4022AF9EF07F0026A016A02
:100FCA00006A086AF9EF07F00B800BAE04EF08F02D
:100FDA00026A0AAE04EF08F0026E016E006E086E35
:100FEA000A36023204EF08F00C6A000E05EF08F028
:100FFA00010E0C6E000EECEC02F005EF08F0FF0E8D
:10100A000250036E0150026E0050016E0850006ECD
:02101A001200C2
:10101C0074C177F175C178F176C179F10DD0280ED4
:10102C00C86EFAEC02F045D00A0EC86EFAEC02F06B
:10103C0040D0040E006E3FD077C1F6FF78C1F7FFA9
:10104C0079C1F8FF0900F5CF01F00900F5CF02F0E6
:10105C000900F5CF03F00900F5CF04F00450000AA5
:10106C0008E10350010A05E10250860A02E1015031
:10107C00A00AD5E077C1F6FF78C1F7FF79C1F8FF78
:10108C000900F5CF01F00900F5CF02F00900F5CF0A
:10109C0003F00900F5CF04F00450000A08E10350F6
:1010AC00060A05E102501A0A02E10150800ABCE06E
:0810BC00C0D7000E006E120007
:1010C400025006180E6E086A096A0B6A0350076418
:1010D40055EF09F006500A6E068E028E03500B6E11
:1010E4000750036E000E0B64A5EF08F00B50075E6B
:1010F400D8B446EF09F0070E076414EF09F0075E51
:1011040000C008F001C000F002C001F0026A074EFE
:1011140046EF09F00764E9EF08F0075E00C008F045
:1011240001C000F0016A074E46EF09F00764C7EFFB
:1011340008F0075E00C008F0006A074E46EF09F0A9
:101144000764AEEF08F00AC002F005C001F004C065
:1011540000F0086A72EF0AF0030E0764B9EF08F0B2
:10116400075E08380F0B086E074E46EF09F0D8905B
:101174000832074E46EF09F0D8900832074E46EF82
:1011840009F0D890083246EF09F0030E0764D8EF4F
:1011940008F0075E08380F0B086E0038F00B0826BD
:1011A40000380F0B006E074E46EF09F0D89000325E
:1011B4000832074E46EF09F0D89000320832074E45
:1011C40046EF09F0D8900032083246EF09F0030EDA
:1011D400076400EF09F0075E08380F0B086E00384B
:1011E400F00B082600380F0B006E0138F00B0026B8
:1011F40001380F0B016E074E46EF09F0D89001320B
:1012040000320832074E46EF09F0D890013200321E
:101214000832074E46EF09F0D89001320032083206
:1012240046EF09F0030E076431EF09F0075E083852
:101234000F0B086E0038F00B082600380F0B006EF9
:101244000138F00B002601380F0B016E0238F00B49
:10125400012602380F0B026E074E46EF09F0D890B4
:101264000232013200320832074E46EF09F0D890BC
:101274000232013200320832074E46EF09F0D890AC
:101284000232013200320832096A000E0EAE3AEF21
:101294000AF0081E001E011E021E082A0022012256
:1012A40002223AEF0AF00750D8A45BEF09F072EF7C
:1012B4000AF0096A02C00AF0028E068E0750035C27
:1012C400076ED8B42DEF0AF0070E0764FBEF09F0A0
:1012D400075E0450096E0550046E0650056E066ADA
:1012E400074E2DEF0AF0070E0764D0EF09F0075EF2
:1012F4000450096E0550046E056A074E2DEF0AF07E
:10130400070E0764AEEF09F0075E0450096E046A25
:10131400074E2DEF0AF0070E076495EF09F00AC097
:1013240002F072EF0AF0030E0764A0EF09F0075E03
:1013340009380F0B096E074E2DEF0AF0D8900932C9
:10134400074E2DEF0AF0D8900932074E2DEF0AF020
:10135400D89009322DEF0AF0030E0764BFEF09F0AD
:10136400075E09380F0B096E0438F00B09260438A0
:101374000F0B046E074E2DEF0AF0D8900432093299
:10138400074E2DEF0AF0D89004320932074E2DEFA4
:101394000AF0D890043209322DEF0AF0030E0764E4
:1013A400E7EF09F0075E09380F0B096E0438F00BFC
:1013B400092604380F0B046E0538F00B0426053893
:1013C4000F0B056E074E2DEF0AF0D890053204324C
:1013D4000932074E2DEF0AF0D89005320432093253
:1013E400074E2DEF0AF0D8900532043209322DEF62
:1013F4000AF0030E076418EF0AF0075E09380F0BB2
:10140400096E0438F00B092604380F0B046E0538F6
:10141400F00B042605380F0B056E0638F00B052675
:1014240006380F0B066E074E2DEF0AF0D8900632E1
:10143400053204320932074E2DEF0AF0D8900632F5
:10144400053204320932074E2DEF0AF0D8900632E5
:10145400053204320932086A000E0EAE3AEF0AF081
:10146400091E041E051E061E092A04220522062240
:101474000950082604500022055001220650022279
:101484000EBE51EF0AF0D8A060EF0AF0023201322A
:1014940000320832033E60EF0AF06CEF0AF0D8B075
:1014A40066EF0AF0000E081E001E011E021E082A26
:1014B4000022012202220A7E66EF0AF0010E0C6E5F
:1014C400C2EC03F074EF0AF0020E0C6EC2EC03F0EF
:1014D40074EF0AF0040E0C6E9CEC01F074EF0AF049
:0614E400000E0C6E120068
:1014EA0074C177F175C178F176C179F10DD0280E02
:1014FA00C86EFAEC02F045D00A0EC86EFAEC02F099
:10150A0040D0040E006E3FD077C1F6FF78C1F7FFD6
:10151A0079C1F8FF0900F5CF01F00900F5CF02F013
:10152A000900F5CF03F00900F5CF04F00450000AD2
:10153A0008E10350010A05E10250860A02E101505E
:10154A00A00AD5E077C1F6FF78C1F7FF79C1F8FFA5
:10155A000900F5CF01F00900F5CF02F00900F5CF37
:10156A0003F00900F5CF04F00450000A08E1035023
:10157A00060A05E102501A0A02E10150800ABCE09B
:08158A00C0D7000E006E120034
:10159200086A096A100E0C6E0134083609360450C6
:1015A200085E0550D8A0053C095ED8B007D00450AB
:1015B20008260550D8B0053C0926D89000360136D9
:0615C2000C2EEAD7120016
:1015C80059D0010175B102D0929201D092820F01D7
:1015D800259376D0010175B102D0929801D09288F6
:1015E8006FD0010175B102D0969201D0968268D071
:1015F800010175B102D0949601D0948661D00101A1
:1016080075B102D0949801D094885AD0010175B16F
:1016180002D0949A01D0948A53D0010175B102D0B6
:10162800949401D094844CD0010175B102D0939266
:1016380001D0938245D0010175B102D0949E01D0AA
:10164800948E3ED0010175B102D0949C01D0948C47
:1016580037D0010175B102D0949601D0948630D06C
:10166800010175B102D0949801D0948829D0010E57
:10167800006E28D001017451000AA3E07451010AD8
:10168800A9E07451020AADE07451030AB1E0745143
:10169800040AB5E07451050AB9E07451060ABDE0C0
:1016A8007451070AC1E07451080AC5E07451090A67
:1016B800C9E074510A0ACDE074510B0AD1E0D7D7BA
:0616C800000E006E12008E
:1016CE0059D0010175B102D0929001D092800F01D4
:1016DE00259176D0010175B102D0949001D09480FD
:1016EE006FD0010175B102D0969001D0968068D06E
:1016FE00010175B102D0949601D0948661D001019A
:10170E0075B102D0949801D094885AD0010175B168
:10171E0002D0949A01D0948A53D0010175B102D0AF
:10172E00949201D094824CD0010175B102D0939065
:10173E0001D0938045D0010175B102D0949E01D0A5
:10174E00948E3ED0010175B102D0949C01D0948C40
:10175E0037D0010175B102D0949601D0948630D065
:10176E00010175B102D0949801D0948829D0010E50
:10177E00006E28D001017451000AA3E07451010AD1
:10178E00A9E07451020AADE07451030AB1E074513C
:10179E00040AB5E07451050AB9E07451060ABDE0B9
:1017AE007451070AC1E07451080AC5E07451090A60
:1017BE00C9E074510A0ACDE074510B0AD1E0D7D7B3
:0617CE00000E006E120087
:1017D40074C177F175C178F176C179F10DD0280E15
:1017E400C86EFAEC02F045D00A0EC86EFAEC02F0AC
:1017F40040D0040E006E3FD077C1F6FF78C1F7FFEA
:1018040079C1F8FF0900F5CF01F00900F5CF02F026
:101814000900F5CF03F00900F5CF04F00450000AE5
:1018240008E10350010A05E10250860A02E1015071
:10183400A00AD5E077C1F6FF78C1F7FF79C1F8FFB8
:101844000900F5CF01F00900F5CF02F00900F5CF4A
:1018540003F00900F5CF04F00450000A08E1035036
:10186400060A05E102501A0A02E10150800ABCE0AE
:08187400C0D7000E006E120047
:10187C005DD0010175B102D0929401D092840F0118
:10188C0025957AD0010175B102D0969601D0968635
:10189C0073D0010175B102D0969401D096846CD0AE
:1018AC00010175B102D0949601D0948665D00101E6
:1018BC0075B102D0949801D094885ED0010175B1B5
:1018CC0002D0949A01D0948A57D0010175B102D0FC
:1018DC00989001D0988050D0010175B102D09394AA
:1018EC0001D0938449D0010175B102D0989401D0F4
:1018FC0098840F01239540D0010175B102D09892C4
:10190C0001D098820F01239337D0010175B102D019
:10191C00949601D0948630D0010175B102D0949880
:10192C0001D0948829D0010E006E28D00101745189
:10193C00000A9FE07451010AA5E07451020AA9E063
:10194C007451030AADE07451040AB1E07451050AF4
:10195C00B5E07451060AB9E07451070ABDE0745140
:10196C00080AC1E07451090AC7E074510A0ACDE0B3
:0E197C0074510B0AD1E0D7D7000E006E120096
:10198A000C6A0E6A0250D8A4DEEF0CF001C002F015
:10199A0000C001F0006A0E860250D8A4DEEF0CF0F7
:1019AA0001C002F0016A0E960E880250D8B4F0EF18
:1019BA000CF00E50035ED8A4D8A0F6EF0CF0D89025
:1019CA0002BEFCEF0CF0003601360236032EE5EFBC
:1019DA000CF0F6EF0CF0010E0C6E1BEC02F000EFAF
:1019EA000DF0020E0C6EA8EC01F000EF0DF0040EE3
:0819FA000C6E98EC01F01200E4
:081A02000B6A0B86FF0E1200B7
:101A0A0027D0CF0EAF6EAC84B3EC04F070D0670E63
:101A1A00AF6EAC84B3EC04F06AD0330EAF6EAC8414
:101A2A00B3EC04F064D0190EAF6EAC84B3EC04F0DE
:101A3A005ED0100EAF6EAC84B3EC04F058D0080E32
:101A4A00AF6EAC84B3EC04F052D0060E006E58D0E0
:101A5A000101000E006E771908E10050761905E1C0
:101A6A00120E751902E17451C00ACBE0000E006E25
:101A7A00771908E10050761905E1250E751902E17A
:101A8A007451800AC4E0000E006E771908E1005014
:101A9A00761905E14B0E751902E17451000ABDE091
:101AAA00000E006E771908E10050761905E1960ECE
:101ABA00751902E17451000AB6E0000E006E77193A
:101ACA0008E10050761905E1E10E751902E1745139
:101ADA00000AAFE07751000A08E17651010A05E1F0
:101AEA007551C20A02E17451000AA9E0AED7F60E96
:101AFA00326F230E336F610E346F010E356F006A39
:021B0A001200C7
:101B0C0027D0CF0EAF6EAC84B3EC04F070D0670E60
:101B1C00AF6EAC84B3EC04F06AD0330EAF6EAC8411
:101B2C00B3EC04F064D0190EAF6EAC84B3EC04F0DB
:101B3C005ED0100EAF6EAC84B3EC04F058D0080E2F
:101B4C00AF6EAC84B3EC04F052D0060E006E58D0DD
:101B5C000101000E006E771908E10050761905E1BD
:101B6C00120E751902E17451C00ACBE0000E006E22
:101B7C00771908E10050761905E1250E751902E177
:101B8C007451800AC4E0000E006E771908E1005011
:101B9C00761905E14B0E751902E17451000ABDE08E
:101BAC00000E006E771908E10050761905E1960ECB
:101BBC00751902E17451000AB6E0000E006E771937
:101BCC0008E10050761905E1E10E751902E1745136
:101BDC00000AAFE07751000A08E17651010A05E1ED
:101BEC007551C20A02E17451000AA9E0AED7F60E93
:101BFC00326F230E336F610E346F010E356F006A36
:021C0C001200C4
:101C0E003BD00F012087030E1F6F400E1E6F2185E4
:101C1E0064EC03F080D00F012087010E1F6FA00E21
:101C2E001E6F218564EC03F076D00F0120871F6BA9
:101C3E00CF0E1E6F218564EC03F06DD00F0120874F
:101C4E001F6B670E1E6F218564EC03F064D00F01CD
:101C5E0020871F6B440E1E6F218564EC03F05BD052
:101C6E000F0120871F6B220E1E6F218564EC03F07F
:101C7E0052D0060E006E59D0000E006E010177197B
:101C8E0008E10050761905E1120E751902E1745142
:101C9E00C00AB7E0000E006E771908E10050761901
:101CAE0005E1250E751902E17451800AB4E0000EAB
:101CBE00006E771908E10050761905E14B0E751983
:101CCE0002E17451000AB1E0000E006E771908E1CE
:101CDE000050761905E1960E751902E17451000A4D
:101CEE00ADE0000E006E771908E10050761905E19F
:101CFE00E10E751902E17451000AA9E07751000A4C
:101D0E0008E17651010A05E17551C20A02E17451EA
:101D1E00000AA6E0AED70101FF0E326FFF0E336F41
:0C1D2E00FF0E346FFF0E356F006A1200CC
:101D3A000101746B75EC06F0746B756B7F0E766F30
:0E1D4A003F0E776F010E786F50EC06F012001E
:101D580015D062C174F163C175F1B5DC1AD062C1E6
:101D680074F163C175F12CDC14D062C174F163C1E4
:101D780075F180DD0ED0010E006E0BD001016151AE
:101D8800000AE7E06151010AEAE06151020AEDE068
:041D9800F2D712006C
:101D9C0067C1F7F064C174F165C175F166C176F184
:101DAC00A4EC05F061C174F162C175F163C176F107
:061DBC00A3EC06F012008A
:101DC2002CD062C174F163C175F164C176F165C151
:101DD20077F19BDE30D062C174F163C175F164C1E9
:101DE20076F165C177F110DE26D062C174F163C16C
:101DF20075F164C176F165C177F108DF1CD062C16B
:101E020074F163C175F164C176F165C177F129ECB2
:101E120005F011D0010E006E0ED001016151000AD1
:101E2200D0E06151010AD7E06151020ADEE061515E
:081E3200100AE5E0EFD71200F1
:101E3A00030E0B6E080E0C6E770E0D6E0D2EFED76E
:0A1E4A000C2EFCD70B2EFAD7120065
:101E540061C163F162C164F1DAEC02F0F7C07DF1B3
:101E6400630E7E6F010E7F6F020E806F000E816F16
:081E7400826B22EC02F0120067
:101E7C001DD062C174F163C175F164C176F1A4DC4B
:101E8C0020D062C174F163C175F164C176F10EECBE
:101E9C0008F017D062C174F163C175F164C176F1B9
:101EAC0075EC0AF00ED0010E006E0BD001016151E1
:101EBC00000ADFE06151010AE4E06151020AEAE044
:041ECC00F2D7120037
:101ED000086A096A000E07620364EDEF0FF0025012
:101EE00006180A6E075003267E0ED8A07EEF0FF06C
:101EF000035ED8B0F2EF0FF082EF0FF0035ED8A0D0
:101F0000F7EF0FF0028E068E02C00EF001C00BF04C
:101F100000C00DF000500402F4CF0CF00150050297
:101F2000F4CF00F0F3CF08F00402F3500C26F45085
:101F30000822000E00220D500502F3500C26F4502A
:101F40000822000E002202500402F3500826F4502A
:101F5000002202500502016A000E0122F350002601
:101F6000F45001220D500602F3500826F4500022CE
:101F7000026A000E012202220B500602F3500026D4
:101F8000F4500122000E02220E500602F3500126E8
:101F9000F450022202BED5EF0FF0083600360136AB
:101FA00002360306D8B4F7EF0FF0E8EF0FF0D88051
:101FB000800E08640030000E002201220222D8A008
:101FC000E8EF0FF0023201320032034AF2EF0FF075
:101FD0000AAE029E000EFAEF0FF0010E1BEC02F0AB
:101FE000FAEF0FF0020E9CEC01F0FAEF0FF0040E86
:061FF000A8EC01F0120054
:101FF60001016351070801E293D00F51615D006E44
:1020060010C101F0000E01560EC104F0000E056E5F
:10201600DFEC04F000C069F101C06AF162C18DF124
:10202600CBEC00F063C18DF1B5EC00F0656B0E51A1
:10203600655D52E262517F0801E272D062C18DF1A4
:10204600BDEC00F063C18DF1B5EC00F062C18DF11D
:10205600CBEC00F0E5EC00F000C066F1E5EC00F03A
:1020660000C066F162C18DF1BDEC00F063C18DF177
:10207600B5EC00F062C18DF1CBEC00F0695123257F
:10208600F66E6A512421F76E000E6ABFFF0E2521F7
:10209600F86E0900F5CF00F000C067F1694B6A2BB6
:1020A600001C686F09D068C166F10FD067C166F180
:1020B6000CD06751661B09D06451000AF4E06451E4
:1020C600010AF4E06451020AF4E066C18DF1DEEC27
:1020D60000F0622B652BABD762C18DF1BDEC00F031
:1020E60063C18DF1B5EC00F062C18DF1CBEC00F06F
:1020F600FF0E676F686B0ED067C166F167C18DF121
:10210600DEEC00F00DD068C166F168C18DF1DEEC41
:1021160000F006D06451000AEFE06451010AF3E0D2
:022126001200A5
:1021280000C008F00150006E016A026A036A0B6A77
:102138000C6A016A026A036A960E036E0A6A00AEA6
:10214800ACEF10F0081E001E082AD8B4002A0A8E28
:1021580000C001F008C000F0086A026A12DC120030
:102168000B6A0350D8B4FAEF10F002500A6E028ED0
:102178008E0E035E03AEFEEF10F0036C080E035CD8
:10218800D8A0D9EF10F0036E013602C001F0026A40
:10219800080E035CD8A0D9EF10F0036E0136016A6F
:1021A8000350D8A4D890E3EF10F00350D8B4E3EF6D
:1021B80010F0D89002320132032EDDEF10F00BBC84
:1021C80001A0F0EF10F0D8A0F0EF10F0012AD8B479
:1021D800022A02BE0DEF11F00AAE13EF11F0021E33
:1021E800011E012AD8B4022A13EF11F0026A016A0B
:1021F80013EF11F00B800BAE17EF11F0026A0AAE65
:1022080017EF11F0FF0E026E016E0A36023217EF59
:1022180011F0010E0C6EECEC02F019EF11F0000E4B
:102228000C6E19EF11F0FF0E0C6E0150006E02508B
:04223800016E120021
:10223C0061C174F107EC05F000C064F1010161515A
:10224C00010F746F07EC05F000C065F164C162F119
:10225C00000E0101636F62C163F1626B6551621321
:0E226C00000E631362C100F063C101F01200A6
:10227A000450000A12E10550000A0FE10650000A54
:10228A000CE10750000A09E1FF0E006EFF0E016E15
:10229A007F0E026EFF0E036EA8D0086A096A075005
:1022AA00D8B4E8EF11F00350D8B4EDEF11F00250B2
:1022BA0006180A6E028E068E0E6A02C008F001C067
:1022CA000CF000C00DF004500D5E0550D8A0053C7E
:1022DA000C5E0650D8A0063C085E086A0C6A0D6AB5
:1022EA00D8A07FEF11F0D8900232013200320832C2
:1022FA00010E0E6E0750035ED8A08CEF11F07E0E11
:10230A000E240326D8B0F2EF11F092EF11F07E0EF0
:10231A000E240326D8A0F7EF11F0180E0B6E0D3617
:10232A000C3608360036013602360E360450005E88
:10233A000550D8A0053C015E0650D8A0063C025EB6
:10234A0006340E120EA0ADEF11F00D80B8EF11F0A9
:10235A00045000260550D8B0053C01260650D8B0D6
:10236A00062802260D900B2E94EF11F0DEEF11F0E5
:10237A00D8900036013602360E360450005E0550FB
:10238A00D8A0053C015E0650D8A0063C025E063481
:10239A000E10010B0D26D8B00C2AD8B4082AD8A4DE
:1023AA00DEEF11F008320C320D32032AD8B4F2EF04
:1023BA0011F00AAE089E0850026E0C50016E0D50C4
:1023CA00006EFAEF11F0010E01EC0DF0FAEF11F0C8
:1023DA00020E1BEC02F0FAEF11F0040E9CEC01F075
:0C23EA00FAEF11F0080EA8EC01F0120050
:0E23F600ACB202D00000FCD761C1ADFF1200F6
:102404000101656B050E655D0AE265516325E16EA8
:10241400000E6421E26E200EE66E652BF3D7655143
:102424006325E16E000E6421E26EE66A650765517C
:102434006325666F000E6421676F0A0E046E000E3A
:10244400056E61C100F062C101F0C9EC0AF008C078
:1024540000F009C001F0300E002666C1E1FF67C13B
:10246400E2FF00C0E6FF0A0E046E000E056E61C1B5
:1024740000F062C101F0C9EC0AF000C061F101C0D2
:1024840062F1000E011802E1000E001801E102D011
:062494006507CDD7120020
:10249A00800E01016219006E800E005C02E1000EDE
:1024AA00615D02E2616B626B800E006E800E6219E2
:1024BA00005C02E161517F0804E27F0E616F000E49
:1024CA00626F800E6619006E800E005C02E1000EDB
:1024DA00655D02E2656B666B800E006E800E6619A2
:1024EA00005C02E165517F0804E27F0E656F000E11
:1024FA00666F800E6419006E800E005C02E1000EA9
:10250A00635D02E2636B646B800E006E800E641979
:10251A00005C02E163513F0804E23F0E636F000E64
:10252A00646F800E6819006E800E005C02E1000E76
:10253A00675D02E2676B686B800E006E800E681939
:10254A00005C02E167513F0804E23F0E676F000E2C
:10255A00686F6151655D016E62516659026E01C014
:10256A006AF102C06BF16351675D6C6F645168591F
:10257A006D6F800E0218006E800E005C02E1000E84
:10258A00015C0BE26A5100086A6F6B51000E6B57CF
:10259A00FF0E6E6FFF0E6F6F04D0010E6E6F000E8E
:1025AA006F6F800E6D19006E800E005C02E1000EE6
:1025BA006C5D0BE26C5100086C6F6D51000E6D572B
:1025CA00FF0E706FFF0E716F04D0010E706F000E58
:1025DA00716F6A376A916B376C376C916D3761C16D
:1025EA0087F163C188F169C189F1B5EC01F0800E08
:1025FA006D19006E800E6B19005C02E16A516C5D08
:10260A003EE26AC100F06BC101F001320032019E64
:10261A0001BC018E00506C5D726F01506D59736F71
:10262A006251661902E16551611928E0800E731939
:10263A00006E800E005C02E1000E725D08E37051CC
:10264A006327715164236A51725F6B51735B6E51D8
:10265A006125006E6F516221016E00C061F101C0F7
:10266A0062F16C5172276D51732300C087F163C107
:10267A0088F169C189F1B5EC01F0D2D73DD06CC1BE
:10268A0000F06DC101F001320032019E01BC018EE1
:10269A0000506A5D726F01506B59736F645168190B
:1026AA0002E16751631928E0800E7319006E800EEB
:1026BA00005C02E1000E725D08E36E5161276F5102
:1026CA0062236C51725F6D51735B70516325006EAA
:1026DA0071516421016E00C063F101C064F16A5155
:1026EA0072276B51732361C187F100C088F169C1F8
:0A26FA0089F1B5EC01F0D2D712000F
:1027040064C100F0016A026A036AFF0E0016000E3B
:10271400011600C069F101C06AF17F0E005C026E0F
:10272400000E0158036E02C069F103C06AF1800E05
:102734000318006E800E005C02E1000E025C22E2CF
:1027440061C104F062C105F063C106F064C107F021
:10275400006A016A026A036A0EEC07F0000ED8B040
:10276400010E006E005205E0006A016A026A036A03
:102774005AD0000E006E000E016E000E026E7F0E27
:10278400036E51D0000E006E01016A51005C02E13B
:102794006951180809E261C100F062C101F063C126
:1027A40002F064C103F03FD061C100F062C101F0E6
:1027B40063C102F064C103F075EC07F02FEC06F07E
:1027C40000C065F101C066F102C067F103C068F1A1
:1027D40061C104F062C105F063C106F064C107F091
:1027E4000EEC07F0010ED8B0000E006E005213E09C
:1027F40065C100F066C101F067C102F068C103F071
:10280400000E046E000E056E000E066E7F0E076E3F
:1028140062EC08F008D065C100F066C101F067C140
:0828240002F068C103F012008C
:08282C00067E62EC08F01200C8
:102834000101446B456B3EC146F13FC147F1800E37
:102844003F19006E800E005C02E1000E3E5D0BE25B
:10285400010E446F000E456F3E510008466F3FC1A4
:1028640047F1000E475746C161F147C162F140C1CB
:1028740063F141C164F1C4DD060E426F000E436F83
:10288400000E006E4351005C02E14251000819E25F
:1028940042514025E16E43514121E26E010E425DF9
:1028A400006E000E4359016E00504025E96E015040
:1028B4004121EA6EEECFE6FF010E425F000E435B5C
:1028C400DFD740C1E1FF41C1E2FF200EE66E445173
:1028D40045111AE0426B436B42514025E96E435166
:1028E4004121EA6EEE50200A03E1424B432BF4D718
:1028F400010E425F000E435B42514025E16E43519D
:0A2904004121E26E2D0EE66E120076
:10290E0003500718D8A49BEF14F002500618D8A451
:10291E009BEF14F001500518D8A49BEF14F0005053
:0E292E000418D8B4D8841200D89412001200F5
:10293C000101616B070E626F010E636FACEC0EF060
:10294C000101616B010E626F636BACEC0EF0010167
:10295C00616B400E626F530E636F000E646F3EEC42
:10296C000FF0010E0101616F800E626F250E636F17
:10297C00000E646F656FE1EC0EF01DEC0FF0CC0EE9
:10298C000101616F520E626F000E636F2C0E646F4B
:10299C00530E656F000E666F680E676FCEEC0EF00F
:1029AC00CFEC02F06B0E616F800E626F2AEC0FF0B1
:1029BC00CFEC02F0190E0101616F626B2AEC0FF083
:1029CC00CFEC02F01A0E0101616F030E626F2AEC5C
:1029DC000FF0CFEC02F01B0E0101616F100E626F55
:1029EC002AEC0FF0CFEC02F01C0E0101616F100EFF
:1029FC00626F2AEC0FF0CFEC02F0230E0101616F35
:102A0C00626B2AEC0FF0CFEC02F0370E0101616F14
:102A1C00020E626F2AEC0FF0CFEC02F0380E0101BF
:102A2C00616F626B2AEC0FF0CFEC02F06A0E0101C1
:102A3C00616F626B2AEC0FF0CFEC02F06B0E0101B0
:102A4C00616F626B2AEC0FF0CFEC02F06C0E01019F
:0E2A5C00616F626B2AEC0FF0CFEC02F01200FB
:102A6A000900F5CFE6FF0006FBE10106F9E11200D5
:102A7A0041C100F0016A026A036AFF0E0016000EE5
:102A8A00011600C046F101C047F17F0E005C026EDC
:102A9A00000E0158036E02C046F103C047F1800ED2
:102AAA000318006E800E005C02E1000E025C22E256
:102ABA00046A056A066A076A3EC100F03FC101F06E
:102ACA0040C102F041C103F00EEC07F0010ED8B08C
:102ADA00000E006E005209E0000E006E000E016E3C
:102AEA00800E026E7F0E036E5DD0006A016A026A72
:102AFA00036A58D0000E006E01014751005C02E1E2
:102B0A004651180809E23EC100F03FC101F040C138
:102B1A0002F041C103F046D03EC100F03FC101F0CE
:102B2A0040C102F041C103F075EC07F02FEC06F04A
:102B3A0000C042F101C043F102C044F103C045F1B3
:102B4A0000C004F001C005F002C006F003C007F09F
:102B5A003EC100F03FC101F040C102F041C103F0A3
:102B6A000EEC07F0010ED8B0000E006E005212E013
:102B7A00000E046E000E056E000E066E7F0E076EC6
:102B8A0042C100F043C101F044C102F045C103F063
:102B9A0048DE08D042C100F043C101F044C102F04E
:062BAA0045C103F012001A
:102BB000010E01010D6F000E006E000E016E800E01
:102BC000026E7F0E036EB1C004F0B2C005F0B3C058
:102BD00006F0B4C007F068EC0FF0CD0E046ECC0E1A
:102BE000056E4C0E066E7D0E076E68EC0FF000C091
:102BF000BDF001C0BEF002C0BFF003C0C0F0000EC7
:102C0000006E000E016E800E026E7F0E036EB9C064
:102C100004F0BAC005F0BBC006F0BCC007F068EC19
:102C20000FF0CD0E046ECC0E056E4C0E066E7D0EB2
:102C3000076E68EC0FF000C0C5F001C0C6F002C01E
:102C4000C7F003C0C8F0B1C0D9F0B2C0DAF0B3C069
:102C5000DBF0B4C0DCF0B9C0D5F0BAC0D6F0BBC070
:102C6000D7F0BCC0D8F03EC188F03FC189F0120057
:102C700001013E51580A19E1000E1D6E000E1E6E34
:102C8000000E1F6E7F0E206EB1C0D9F0B2C0DAF018
:102C9000B3C0DBF0B4C0DCF019C0DDF01AC0DEF068
:102CA0001BC0DFF01CC0E0F018D0000E4C6E000E10
:102CB0004D6E000E4E6E7F0E4F6EB9C0D5F0BAC08D
:102CC000D6F0BBC0D7F0BCC0D8F021C0CDF022C038
:0C2CD000CEF023C0CFF024C0D0F01200E2
:102CDC000101226B266B276B939A9398939493968E
:102CEC0093909392819A956A819481968190818236
:102CFC00818A3F0E836E25EC00F0C00E836E25ECAE
:102D0C0000F0818081923F0E836E25EC00F0C00EA6
:082D1C00836E25EC00F01200AB
:102D2400000E0101431902E1000E421909E13EC1FE
:102D340087F140C188F144C189F1B5EC01F069D152
:102D4400496B4A6B4D6B4E6B42C147F143C148F12D
:102D540042C14FF143C150F13E51405D4B6F3F5171
:102D640041594C6F42C100F043C101F0003600905C
:102D7400013600C045F101C046F100500308456F1B
:102D840001C046F1000E4657010E4725016E000EA4
:102D94004821026E800E4A19006E800E0218005CF3
:102DA40002E10150495DD8B0DBD049513E25006EA7
:102DB4004A513F21016E00C061F101C062F14751E7
:102DC4004025636F48514121646F00C065F101C023
:102DD40066F14751405D676F48514159686F44C17E
:102DE40069F14DEC12F0800E006E800E4A19005C01
:102DF40002E1495100081EE249513E5D006E4A510C
:102E04003F59016E00C061F101C062F14751402594
:102E1400636F48514121646F00C065F101C066F1E0
:102E24004751405D676F48514159686F44C169F12A
:102E34004DEC12F05051481902E147514F1951E03D
:102E44004F514025006E50514121016E4B51005E9F
:102E54004C51015A00C061F101C062F14D5140254D
:102E6400636F4E514121646F00C065F101C066F18A
:102E74004D51405D676F4E514159686F44C169F1CE
:102E84004DEC12F0800E006E800E5019005C02E1D1
:102E94004F51000822E24F51405D006E505141599C
:102EA400016E4B51005E4C51015A00C061F101C0EA
:102EB40062F14D514025636F4E514121646F00C052
:102EC40065F101C066F14D51405D676F4E51415946
:102ED400686F44C169F14DEC12F047C14FF148C12C
:102EE40050F1800E4619006E800E005C02E1000E67
:102EF400455D13E249C100F04AC101F0003600907B
:102F04000136003600900136060E0026000E01221E
:102F1400005045270150462320D04751495D036E98
:102F240048514A59046E03C000F004C001F0003651
:102F3400009001360036009001360A0E0026000E7D
:102F440001220050452701504623010E475F000E21
:102F5400485B49C14DF14AC14EF1494B4A2B14D744
:102F6400010E495D016E000E4A59026E025050195D
:102F740002E14F5101184DE04F514025006E505170
:102F84004121016E4B51005E4C51015A00C061F168
:102F940001C062F14D514025636F4E514121646F70
:102FA40000C065F101C066F14D51405D676F4E513F
:102FB4004159686F44C169F14DEC12F0800E006E06
:102FC400800E5019005C02E14F51000822E24F517B
:102FD400405D006E50514159016E4B51005E4C51A1
:102FE400015A00C061F101C062F14D514025636F87
:102FF4004E514121646F00C065F101C066F14D512D
:10300400405D676F4E514159686F44C169F14DECA1
:0430140012F01200A4
:103018003EC14AF03FC14BF040C150F041C151F0B0
:1030280042C1EDF043C1EEF044C1E7F045C1E8F01C
:1030380047C1DDF048C1DEF049C1DFF04AC1E0F028
:103048004BC1CDF04CC1CEF04DC1CFF04EC1D0F048
:1030580047C119F048C11AF049C11BF04AC11CF018
:103068004BC121F04CC122F04DC123F04EC124F0D8
:02307800120044
:10307A009DEC0EF00001886B896B866B876B020EE4
:10308A0001010D6F006B00016A6B6B6B080E686FB4
:06309A00000E696F120038
:1030A0000101436B2251000A0EE1050E0E6F070E5F
:1030B000286F140E236F4F0E246F000E256F200E05
:1030C0000F6F000E106F43513E25E96E000E3F2139
:1030D000EA6EEE5217E043513E25E96E000E3F21A5
:1030E000EA6EEECF61F140C162F141C163F142C1CC
:1030F00064F1FBEC0FF00E51010F006E0050402701
:06310000432BE1D7120091
:1031060001014051580AD8A4BED03EC100F03FC1CB
:1031160001F094EC10F019C004F01AC005F01BC0C1
:1031260006F01CC007F00EEC07F0010ED8B0000E3A
:10313600006E005245E03EC100F03FC101F094EC44
:1031460010F000C041F101C042F102C043F103C0DA
:1031560044F13CC004F03DC005F03EC006F03FC05F
:1031660007F041C100F042C101F043C102F044C181
:1031760003F016EC14F0000E046E000E056E400E01
:10318600066E800E076E3DEC11F000C004F001C023
:1031960005F002C006F003C007F041C100F042C1CD
:1031A60001F043C102F044C103F016EC14F000C074
:1031B60019F001C01AF002C01BF003C01CF03CD08D
:1031C6003EC100F03FC101F094EC10F000C041F1A7
:1031D60001C042F102C043F103C044F141C104F011
:1031E60042C105F043C106F044C107F03CC000F0FF
:1031F6003DC001F03EC002F03FC003F016EC14F0F3
:10320600000E046E000E056E400E066E800E076EF2
:103216003DEC11F041C104F042C105F043C106F096
:1032260044C107F062EC08F000C019F001C01AF0C2
:1032360002C01BF003C01CF00001B16BB26BB36B94
:10324600B46BD96BDA6BDB6BDC6B19C0DDF01AC0C3
:10325600DEF01BC0DFF01CC0E0F0000E1D6E000E9D
:103266001E6E000E1F6E7F0E206E010E0101296F6D
:1032760019C000F01AC001F01BC002F01CC003F018
:10328600B4EC10F0C7D03EC100F03FC101F094ECA1
:1032960010F021C004F022C005F023C006F024C0BF
:1032A60007F00EEC07F0010ED8B0000E006E0052CB
:1032B6004FE03EC100F03FC101F094EC10F000C0B9
:1032C60041F101C042F102C043F103C044F115C00F
:1032D60004F016C005F017C006F018C007F041C18B
:1032E60000F042C101F043C102F044C103F016EC04
:1032F60014F0000E046E000E056E400E066E800E73
:10330600076E3DEC11F000C004F001C005F002C0EC
:1033160006F003C007F041C100F042C101F043C10D
:1033260002F044C103F016EC14F000C061F101C0D4
:1033360062F102C063F103C064F182EC13F000C0D5
:1033460021F001C022F002C023F003C024F03CD0DB
:103356003EC100F03FC101F094EC10F000C041F115
:1033660001C042F102C043F103C044F141C104F07F
:1033760042C105F043C106F044C107F015C000F094
:1033860016C001F017C002F018C003F016EC14F0D6
:10339600000E046E000E056E400E066E800E076E61
:1033A6003DEC11F041C104F042C105F043C106F005
:1033B60044C107F062EC08F000C021F001C022F021
:1033C60002C023F003C024F00001B96BBA6BBB6BDB
:1033D600BC6BD56BD66BD76BD86B21C0CDF022C03A
:1033E600CEF023C0CFF024C0D0F0000E4C6E000EFD
:1033F6004D6E000E4E6E7F0E4F6E010E0101296F4F
:1034060021C000F022C001F023C002F024C003F066
:06341600B4EC10F01200FE
:10341C000101416B3EC1E9FF3FC1EAFFEECF40F134
:10342C004051000A0FE040C161F1FBEC11F00101C9
:10343C00412B41513E25E96E000E3F21EA6EEECF45
:06344C0040F1EED7120072
:103452000101536B546B556B566B576B586B596B21
:103462005A6B42513E25006E43513F21016E010EBF
:10347200005C026E000E0158036E000E006E0350D7
:10348200005C02E102507F0807E23E518008426F71
:103492003FC143F1000E435744514025006E455150
:1034A2004121016E010E005C026E000E0158036E96
:1034B200000E006E0350005C02E102503F0807E27A
:1034C20040514008446F41C145F1000E455740C18B
:1034D20000F041C101F001320032019E013200329E
:1034E200019E01320032019E00C04DF1445140253F
:1034F200056E45514121066E010E055C036E000EFC
:103502000658046E03C000F004C001F0013200321C
:10351200019E01320032019E01320032019E00C042
:103522004EF1070E4015006E41C101F0000E01166A
:1035320000C050F1070E0514006E06C001F0000E27
:10354200011600C051F14951455D02E14851445D07
:1035520003E24EC152F11BD048514025006E495141
:103562004121016E010E005C036E000E0158046ED3
:1035720003C000F004C001F001320032019E0132AA
:103582000032019E01320032019E00C052F1070E4C
:103592004815016E49C102F0000E0216000E021813
:1035A20002E1000E011818E148C100F049C101F022
:1035B20001320032019E01320032019E013200329C
:1035C200019E46C104F047C105F0DFEC04F000C0E3
:1035D2005DF101C05EF119D048C100F049C101F0AE
:1035E20001320032019E01320032019E013200326C
:1035F200019E004A012A46C104F047C105F0DFECF2
:1036020004F000C05DF101C05EF14DC153F1000E46
:10361200546F000E006E5451005C02E153514E5D36
:10362200D8A003D15B6B5C6B556B566B4351565DF7
:1036320002E14251555DD8B0E7D055513E258D6F1C
:10364200BDEC00F053C18DF1B5EC00F04751565D71
:1036520002E14651555D3DE2000E006E5451005CA0
:1036620002E15351525D35E3000E541902E14D510E
:10367200531902E15F6B12D059515B25006E5A510A
:103682005C21016E00504A25F66E01504B21F76E07
:10369200000E4C21F86E0900F5CF5FF15E51585DC6
:1036A20002E15D51575D02E3606B12D057515B2519
:1036B200006E58515C21016E00504A25F66E015091
:1036C2004B21F76E000E4C21F86E0900F5CF60F128
:1036D20002D0606B5F6B60C14FF1505100081AE27B
:1036E20050510808006E016A000E015A5FC14FF185
:1036F200005004E04F334F9FFF0FFBD750C101F042
:1037020060C100F0015004E000360090FF0FFBD7CB
:1037120000504F13000E541902E14D5153192DE17F
:10372200505100082AE255513E258D6FCBEC00F036
:10373200E5EC00F0E5EC00F050510808016E026A79
:10374200000E025A01C002F0FF0E016E025004E0A8
:103752000132019EFF0FFBD701500014026E50C1CF
:1037620001F0FF0E006E015004E000360090FF0FE2
:10377200FBD700504F1702504F13000E541902E1AD
:103782004E5153192DE1515100082AE255513E255F
:103792008D6FCBEC00F0E5EC00F0E5EC00F051C1F0
:1037A20002F0FF0E016E025004E001360190FF0F9D
:1037B200FBD701500014026E51510808006E016AD5
:1037C200000E015A00C001F0FF0E006E015004E02D
:1037D2000032009EFF0FFBD700504F1702504F13CD
:1037E2004751565D02E14651555D02E25B4B5C2B4F
:1037F20055513E258D6FCBEC00F04FC18DF1DEECC3
:1038020000F0554B562B12D7000E545D02E1525177
:10381200535D08E257C159F158C15AF14651572731
:0C38220047515823534B542BF4D612008E
:10382E003B0E0101616F1EEC11F03EC1E1FF3FC185
:10383E00E2FF00C0E6FF01C0E6FF3D0E616F1EEC29
:10384E0011F040C1E1FF41C1E2FF00C0E6FF01C03F
:10385E00E6FF3F0E616F1EEC11F042C1E1FF43C166
:0C386E00E2FF00C0E6FF01C0E6FF120010
:10387A00A2EC29F09EEC14F06EEC16F03DEC18F078
:10388A000F01236B030E996E670EAF6EAC84B3EC17
:10389A0004F0680E0C6EE40E0D6E0D2EFED70C2E83
:1038AA00FCD7000079EF27F00101746B75EC06F084
:1038BA00340E0C6EF10E0D6E0D2EFED70C2EFCD7AB
:1038CA00000000007E0E3E6F000E3F6F406B416BA2
:1038DA00010E426F50EC18F06C0E3E6F000E3F6FF7
:1038EA00406B010E416F010E426F50EC18F0520E00
:1038FA003E6F000E3F6F406B020E416F010E426F2A
:10390A0050EC18F0310E3E6F000E3F6F406B040E04
:10391A00416F010E426F50EC18F0250E3E6F000EFB
:10392A003F6F406B050E416F010E426F50EC18F06D
:10393A00400E3E6F000E3F6F406B070E416F010E47
:10394A00426F50EC18F0090E0B6E1E0E0C6EE40E50
:10395A000D6E0D2EFED70C2EFCD70B2EFAD70000BB
:10396A0087A004D0746B75EC06F001D0F9D700512A
:10397A00000AD8A439EF27F00D51020AD8B4CBEFC8
:10398A0024F019C03CF01AC03DF01BC03EF01CC028
:10399A003FF021C015F022C016F023C017F024C052
:1039AA0018F01DC000F01EC001F01FC002F020C0B8
:1039BA0003F0000E046E000E056E000E066E7F0EFA
:1039CA00076E62EC08F000C01DF001C01EF002C0D4
:1039DA001FF003C020F04CC000F04DC001F04EC0F3
:1039EA0002F04FC003F0000E046E000E056E000ECA
:1039FA00066E7F0E076E62EC08F000C04CF001C044
:103A0A004DF002C04EF003C04FF04AC03EF14BC029
:103A1A003FF150C040F151C041F1EDC042F1EEC05A
:103A2A0043F1E7C044F1E8C045F1EDC046F1EEC00C
:103A3A0047F1E7C048F1E8C049F1F40E4A6F500E69
:103A4A004B6F000E4C6F00DD0D51000AD8A486D0D2
:103A5A00E50E3E6F000E3F6FEB0E406F000E416F9A
:103A6A00E90E426F000E436FDDDEFF0E006EFF0EA1
:103A7A00016EE5C004F0E6C005F0DFEC04F0070EC5
:103A8A00026E00C004F001C005F0025007E00532E2
:103A9A000432059E05BC058EFF0FF8D704C000F05E
:103AAA0005C001F094EC10F000C0C1F001C0C2F0F2
:103ABA0002C0C3F003C0C4F0BDC004F0BEC005F02C
:103ACA00BFC006F0C0C007F087EC14F0000ED8A4FF
:103ADA00010E006E00520CE0C1C0BDF0C2C0BEF0C3
:103AEA00C3C0BFF0C4C0C0F0580E3E6F38EC16F029
:103AFA00070E026EEBC000F0ECC001F0025007E0C6
:103B0A0001320032019E01BC018EFF0FF8D794ECFE
:103B1A0010F000C0C9F001C0CAF002C0CBF003C067
:103B2A00CCF0C5C004F0C6C005F0C7C006F0C8C0D6
:103B3A0007F087EC14F0000ED8A4010E006E0052B4
:103B4A000CE0C9C0C5F0CAC0C6F0CBC0C7F0CCC033
:103B5A00C8F0590E3E6F38EC16F012D00001BD6B5A
:103B6A00BE6BBF6BC06BC56BC66BC76BC86B580EA1
:103B7A0001013E6F38EC16F0590E3E6F38EC16F024
:103B8A000D51000AD8A4E6D0000E0001EE1902E198
:103B9A001E0EED19D8A473D0000E4B1802E13C0E8C
:103BAA004A1832E1010E866F000E876F4AC000F094
:103BBA004BC001F094EC10F000C004F001C005F015
:103BCA0002C006F003C007F019C000F01AC001F0E5
:103BDA001BC002F01CC003F00EEC07F0000ED8B0B8
:103BEA00010E006E00520FE0010E01013E6F000E41
:103BFA003F6FD8EC15F0580E3E6F38EC16F0590EA0
:103C0A003E6F38EC16F03AD0000E4B1802E11E0E49
:103C1A004A1834E1020E0001866F000E876FED51DB
:103C2A004A24006EEE514B20016E94EC10F000C055
:103C3A0004F001C005F002C006F003C007F019C085
:103C4A0000F01AC001F01BC002F01CC003F00EEC19
:103C5A0007F0010ED8B0000E006E00520FE0020EFF
:103C6A0001013E6F000E3F6FD8EC15F0580E3E6F03
:103C7A0038EC16F0590E3E6F38EC16F06BD0000E89
:103C8A00511802E1140E501835E1030E0001866F37
:103C9A00000E876FE7515024006EE8515120016EE3
:103CAA0094EC10F000C004F001C005F002C006F068
:103CBA0003C007F021C000F022C001F023C002F0C7
:103CCA0024C003F00EEC07F0010ED8B0000E006E0F
:103CDA0000520FE0030E01013E6F000E3F6FD8EC59
:103CEA0015F0590E3E6F38EC16F0580E3E6F38EC50
:103CFA0016F030D0000E511802E11E0E50182AE1BB
:103D0A00040E0001866F000E876F50C000F051C08C
:103D1A0001F094EC10F021C004F022C005F023C099
:103D2A0006F024C007F00EEC07F0010ED8B0000E22
:103D3A00006E00520FE0040E01013E6F000E3F6F4D
:103D4A00D8EC15F0590E3E6F38EC16F0580E3E6F4F
:103D5A0038EC16F0B1C000F0B2C001F0B3C002F006
:103D6A00B4C003F0046A056A066A076A87EC14F0AD
:103D7A00000ED8A4010E006E005225E09A0E006EC5
:103D8A00990E016E190E026E7D0E036EB1C004F01B
:103D9A00B2C005F0B3C006F0B4C007F068EC0FF08B
:103DAA00000E046E000E056E800E066E7F0E076E04
:103DBA0068EC0FF000C0ADF001C0AEF002C0AFF089
:103DCA0003C0B0F005D00001AD6BAE6BAF6BB06B4A
:103DDA00B9C000F0BAC001F0BBC002F0BCC003F029
:103DEA00046A056A066A076A87EC14F0000ED8A40A
:103DFA00010E006E005225E09A0E006E990E016EB9
:103E0A00190E026E7D0E036EB9C004F0BAC005F039
:103E1A00BBC006F0BCC007F068EC0FF0000E046EE1
:103E2A00000E056E800E066E7F0E076E68EC0FF0B0
:103E3A0000C0B5F001C0B6F002C0B7F003C0B8F0D8
:103E4A0005D00001B56BB66BB76BB86BBDC000F09F
:103E5A00BEC001F0BFC002F0C0C003F0ADC004F0A4
:103E6A00AEC005F0AFC006F0B0C007F062EC08F0D3
:103E7A001DC004F01EC005F01FC006F020C007F0E8
:103E8A0068EC0FF0D9C004F0DAC005F0DBC006F028
:103E9A00DCC007F062EC08F000C036F101C037F16F
:103EAA0002C038F103C039F136C1B1F037C1B2F0FE
:103EBA0038C1B3F039C1B4F0C5C000F0C6C001F0D2
:103ECA00C7C002F0C8C003F0B5C004F0B6C005F020
:103EDA00B7C006F0B8C007F062EC08F04CC004F0B6
:103EEA004DC005F04EC006F04FC007F068EC0FF069
:103EFA00D5C004F0D6C005F0D7C006F0D8C007F088
:103F0A0062EC08F000C03AF101C03BF102C03CF19A
:103F1A0003C03DF13AC1B9F03BC1BAF03CC1BBF0B4
:103F2A003DC1BCF036C100F037C101F038C102F022
:103F3A0039C103F0E1C004F0E2C005F0E3C006F0C5
:103F4A00E4C007F062EC08F01DC004F01EC005F0E2
:103F5A001FC006F020C007F068EC0FF0DDC004F0C7
:103F6A00DEC005F0DFC006F0E0C007F062EC08F042
:103F7A0000C036F101C037F102C038F103C039F18F
:103F8A0036C119F037C11AF038C11BF039C11CF01B
:103F9A003AC100F03BC101F03CC102F03DC103F05F
:103FAA00D1C004F0D2C005F0D3C006F0D4C007F0E7
:103FBA0062EC08F04CC004F04DC005F04EC006F0AB
:103FCA004FC007F068EC0FF0CDC004F0CEC005F08A
:103FDA00CFC006F0D0C007F062EC08F000C021F0B4
:103FEA0001C022F002C023F003C024F036C13EF122
:103FFA0037C13FF138C140F139C141F13DEC15F00B
:10400A0000C004F001C005F002C006F003C007F0CA
:10401A0019C000F01AC001F01BC002F01CC003F066
:10402A0016EC14F000C004F001C005F002C006F05E
:10403A0003C007F0000E006E000E016E000E026E45
:10404A007E0E036E0EEC07F0010ED8B0000E006E65
:10405A00005213E019C061F11AC062F11BC063F18A
:10406A001CC064F182EC13F000C019F001C01AF010
:10407A0002C01BF003C01CF012D019C03EF11AC0D6
:10408A003FF11BC040F11CC041F13DEC15F000C0EE
:10409A0019F001C01AF002C01BF003C01CF021C0C5
:1040AA003EF122C03FF123C040F124C041F13DEC72
:1040BA0015F000C004F001C005F002C006F003C00C
:1040CA0007F021C000F022C001F023C002F024C092
:1040DA0003F016EC14F000C004F001C005F002C0B1
:1040EA0006F003C007F0000E006E000E016E000E0F
:1040FA00026E7E0E036E0EEC07F0010ED8B0000EB3
:10410A00006E005213E021C061F122C062F123C0A7
:10411A0063F124C064F182EC13F000C021F001C005
:10412A0022F002C023F003C024F012D021C03EF1D5
:10413A0022C03FF123C040F124C041F13DEC15F00B
:10414A0000C021F001C022F002C023F003C024F015
:10415A00B9C000F0BAC001F0BBC002F0BCC003F0A5
:10416A00B4EC10F000C03EF101C03FF12B0E01018A
:10417A00406F010E416F1AEC14F02B0E3E6F010EC8
:10418A003F6F0EEC1AF03CC000F03DC001F03EC09B
:10419A0002F03FC003F0046A056A066A076A87EC00
:1041AA0014F0000ED8A4010E006E0052D8B4C1D08B
:1041BA002A51020A23E13CC004F03DC005F03EC08A
:1041CA0006F03FC007F019C000F01AC001F01BC08A
:1041DA0002F01CC003F03DEC11F0000E046E000E5C
:1041EA00056E000E066E7F0E076E0EEC07F0010ECE
:1041FA00D8B0000E006E005201E030D001012A5101
:10420A00010A2BE13CC004F03DC005F03EC006F0B7
:10421A003FC007F019C000F01AC001F01BC002F03D
:10422A001CC003F03DEC11F000C004F001C005F021
:10423A0002C006F003C007F0000E006E000E016E09
:10424A00000E026E7F0E036E0EEC07F0010ED8B060
:10425A00000E006E005201E001D06BD0010129511D
:10426A00000A67E10D51020A19E10001BD6BBE6B3C
:10427A00BF6BC06BB16BB26BB36BB46BD96BDA6BE0
:10428A00DB6BDC6BDDC019F0DEC01AF0DFC01BF09F
:10429A00E0C01CF0DD6BDE6BDF6BE06B00013CC045
:1042AA0019F03DC01AF03EC01BF03FC01CF03CC0E4
:1042BA00DDF03DC0DEF03EC0DFF03FC0E0F0B16BA4
:1042CA00B26BB36BB46BD96BDA6BDB6BDC6B1D6AED
:1042DA001E6A1F6A206ABDC004F0BEC005F0BFC0D6
:1042EA0006F0C0C007F0006A016A026A036A0EECAF
:1042FA0007F0010ED8B0000E006E005203E0020E65
:10430A0001012A6F046A056A066A076ABDC000F0DD
:10431A00BEC001F0BFC002F0C0C003F00EEC07F04F
:10432A00010ED8B0000E006E005203E00101010E2A
:10433A002A6F15C000F016C001F017C002F018C0AD
:10434A0003F0046A056A066A076A87EC14F0000E2D
:10435A00D8A4010E006E0052D8B4C2D00101115186
:10436A00010A23E115C004F016C005F017C006F0D3
:10437A0018C007F021C000F022C001F023C002F0EB
:10438A0024C003F03DEC11F0000E046E000E056E21
:10439A00000E066E7F0E076E0EEC07F0010ED8B007
:1043AA00000E006E005201E030D001011151020AE4
:1043BA002BE115C004F016C005F017C006F018C0AE
:1043CA0007F021C000F022C001F023C002F024C08F
:1043DA0003F03DEC11F000C004F001C005F002C08A
:1043EA0006F003C007F0000E006E000E016E000E0C
:1043FA00026E7F0E036E0EEC07F0010ED8B0000EAF
:10440A00006E005201E001D06BD001012951000A6F
:10441A0067E10D51020A19E10001C56BC66BC76B52
:10442A00C86BB96BBA6BBB6BBC6BD56BD66BD76BF6
:10443A00D86BDDC021F0DEC022F0DFC023F0E0C07F
:10444A0024F0CD6BCE6BCF6BD06B000115C021F081
:10445A0016C022F017C023F018C024F015C0CDF002
:10446A0016C0CEF017C0CFF018C0D0F0B96BBA6B37
:10447A00BB6BBC6BD56BD66BD76BD86B4C6A4D6A72
:10448A004E6A4F6AC5C004F0C6C005F0C7C006F040
:10449A00C8C007F0006A016A026A036A0EEC07F0F4
:1044AA00010ED8B0000E006E005203E0010E0101A9
:1044BA00116F046A056A066A076AC5C000F0C6C0B9
:1044CA0001F0C7C002F0C8C003F00EEC07F0010EFD
:1044DA00D8B0000E006E005203E00101020E116F07
:1044EA0001012951010AD8B4296B3CC004F03DC02E
:1044FA0005F03EC006F03FC007F019C000F01AC030
:10450A0001F01BC002F01CC003F016EC14F0000E00
:10451A00046E000E056E000E066E800E076E3DECF0
:10452A0011F03CC004F03DC005F03EC006F03FC0AB
:10453A0007F062EC08F000C09EF001C09FF002C0D4
:10454A00A0F003C0A1F015C004F016C005F017C012
:10455A0006F018C007F021C000F022C001F023C005
:10456A0002F024C003F016EC14F0000E046E000EE4
:10457A00056E000E066E800E076E3DEC11F015C03A
:10458A0004F016C005F017C006F018C007F062EC78
:10459A0008F000C0A9F001C0AAF002C0ABF003C045
:1045AA00ACF019C004F01AC005F01BC006F01CC01C
:1045BA0007F0000E006E000E016E740E026E850E7C
:1045CA00036E0EEC07F0010ED8B0000E006E00521A
:1045DA0026E0000E0001871902E1010E861903E1A7
:1045EA00866B876B1CD07A0E01013E6F000E3F6FFF
:1045FA00580E406F83EC18F094EC10F000C019F0DC
:10460A0001C01AF002C01BF003C01CF0000E00012A
:10461A009E6F000E9F6F740EA06F850EA16F000E25
:10462A00046E000E056E200E066E810E076E19C00E
:10463A0000F01AC001F01BC002F01CC003F00EEC1F
:10464A0007F0010ED8B0000E006E005226E00001FD
:10465A00000E871902E1020E861903E1866B876B49
:10466A001CD0050E01013E6F000E3F6F580E406FC1
:10467A0083EC18F094EC10F000C019F001C01AF0A5
:10468A0002C01BF003C01CF0000E00019E6F000E5A
:10469A009F6F200EA06F810EA16F000E046E000E98
:1046AA00056E200E066E810E076E21C000F022C034
:1046BA0001F023C002F024C003F00EEC07F0010E53
:1046CA00D8B0000E006E005226E00001000E8719D5
:1046DA0002E1030E861903E1866B876B1CD0050E77
:1046EA0001013E6F000E3F6F590E406F83EC18F0C8
:1046FA0094EC10F000C021F001C022F002C023F0B7
:10470A0003C024F0000E0001A96F000EAA6F200E4C
:10471A00AB6F810EAC6F21C004F022C005F023C03C
:10472A0006F024C007F0000E006E000E016E680E3F
:10473A00026E840E036E0EEC07F0010ED8B0000E66
:10474A00006E005226E00001000E871902E1040EF5
:10475A00861903E1866B876B1CD03A0E01013E6F06
:10476A00000E3F6F590E406F83EC18F094EC10F076
:10477A0000C021F001C022F002C023F003C024F0DF
:10478A00000E0001A96F000EAA6F680EAB6F840EAF
:10479A00AC6F01012951010A53E19EC000F09FC08C
:1047AA0001F0A0C002F0A1C003F0B4EC10F000C008
:1047BA003EF101C03FF1A9C000F0AAC001F0ABC0B0
:1047CA0002F0ACC003F0B4EC10F000C040F101C03C
:1047DA0041F1040E426F000E436F010E446F92ECDA
:1047EA0016F0020E0B6E380E0C6EAD0E0D6E0D2EFF
:1047FA00FED70C2EFCD70B2EFAD79EC000F09FC016
:10480A0001F0A0C002F0A1C003F0B4EC10F000C0A7
:10481A003EF101C03FF1A9C000F0AAC001F0ABC04F
:10482A0002F0ACC003F0B4EC10F000C040F101C0DB
:10483A0041F1040E426F000E436F446B92EC16F086
:10484A000D51010A32E13CC004F03DC005F03EC002
:10485A0006F03FC007F019C000F01AC001F01BC0F3
:10486A0002F01CC003F087EC14F0010ED8A4000E6D
:10487A00006E00521AE015C004F016C005F017C009
:10488A0006F018C007F021C000F022C001F023C0D2
:10489A0002F024C003F087EC14F0010ED8A4000E35
:1048AA00006E005202E0020E0D6F87A218D00001BE
:1048BA006A4B6B2B020E01010D6F010E0001685F3E
:1048CA00000E695B070E0B6E170E0C6E6A0E0D6EEC
:1048DA000D2EFED70C2EFCD70B2EFAD700003CC0AB
:1048EA0000F03DC001F03EC002F03FC003F0B4EC5E
:1048FA0010F000C03EF101C03FF115C000F016C033
:10490A0001F017C002F018C003F0B4EC10F000C0B8
:10491A0040F101C041F1040E0101426F000E436FE4
:10492A00446B92EC16F019C000F01AC001F01BC0DB
:10493A0002F01CC003F0B4EC10F000C03EF101C05C
:10494A003FF121C000F022C001F023C002F024C0D0
:10495A0003F0B4EC10F000C040F101C041F1040EC4
:10496A00426F000E436F010E446F92EC16F0040E74
:10497A000B6E0C0E0C6E330E0D6E0D2EFED70C2E1A
:10498A00FCD70B2EFAD7000000006CD20D6B000189
:10499A00BD6BBE6BBF6BC06BC56BC66BC76BC86BA1
:1049AA00B16BB26BB36BB46BD96BDA6BDB6BDC6B71
:1049BA00B96BBA6BBB6BBC6BD56BD66BD76BD86B51
:1049CA00000E871902E1000E8619D8B4ECD0CFD0B8
:1049DA0019C004F01AC005F01BC006F01CC007F08D
:1049EA00000E006E000E016E340E026E850E036E0E
:1049FA000EEC07F0010ED8B0000E006E00521AE05D
:104A0A00000E046E000E056E740E066E850E076E9D
:104A1A0019C000F01AC001F01BC002F01CC003F05C
:104A2A000EEC07F0010ED8B0000E006E005202E044
:104A3A006A4B6B2BB8D019C004F01AC005F01BC022
:104A4A0006F01CC007F0000E006E000E016E200E6C
:104A5A00026E810E036E0EEC07F0010ED8B0000E46
:104A6A00006E00521AE0000E046E000E056E480E2B
:104A7A00066E830E076E19C000F01AC001F01BC043
:104A8A0002F01CC003F00EEC07F0010ED8B0000EC5
:104A9A00006E005202E06A4B6B2B85D021C004F0F5
:104AAA0022C005F023C006F024C007F0000E006EF5
:104ABA00000E016E200E026E810E036E0EEC07F0E0
:104ACA00010ED8B0000E006E00521BE0000E046EFC
:104ADA00000E056E000E066E830E076E21C000F0F2
:104AEA0022C001F023C002F024C003F00EEC07F04C
:104AFA00010ED8B0000E006E005203E000016A4BAE
:104B0A006B2B51D021C004F022C005F023C006F05F
:104B1A0024C007F0000E006E000E016E300E026E09
:104B2A00840E036E0EEC07F0010ED8B0000E006E74
:104B3A0000521BE0000E046E000E056E680E066E33
:104B4A00840E076E21C000F022C001F023C002F0DB
:104B5A0024C003F00EEC07F0010ED8B0000E006E70
:104B6A00005203E000016A4B6B2B1DD01CD00001E0
:104B7A00000E891902E1010E8819D8B429D7000E4E
:104B8A00891902E1020E8819D8B455D7000E89197D
:104B9A0002E1030E881982E0000E891902E1040E6F
:104BAA008819B0E0E3D724D13C0E01013E6F000E14
:104BBA003F6F406B416B1E0E426F000E436F400EFB
:104BCA00446F000E456F580E466F000E476F000E79
:104BDA00486F200E496F810E4A6F000E4B6F000E10
:104BEA004C6F600E4D6F830E4E6F0CEC18F038D17F
:104BFA0001013C0E3E6F000E3F6F406B416B1E0E73
:104C0A00426F000E436F400E446F000E456F580E00
:104C1A00466F000E476F000E486F200E496F840ED4
:104C2A004A6F000E4B6F000E4C6F600E4D6F830E75
:104C3A004E6F0CEC18F014D101011E0E3E6F000EDF
:104C4A003F6F406B416B1E0E426F000E436F400E6A
:104C5A00446F000E456F580E466F000E476F000EE8
:104C6A00486F660E496F850E4A6F000E4B6F000E35
:104C7A004C6F600E4D6F830E4E6F0CEC18F0F0D037
:104C8A0001011E0E3E6F000E3F6F406B416B1E0E00
:104C9A00426F000E436F400E446F000E456F580E70
:104CAA00466F000E476F000E486F0C0E496F850E57
:104CBA004A6F000E4B6F000E4C6F600E4D6F830EE5
:104CCA004E6F0CEC18F0CCD001013E6B3F6B140E0A
:104CDA00406F000E416F800E426F000E436F0E0E42
:104CEA00446F000E456F590E466F000E476F000E57
:104CFA00486F640E496F840E4A6F000E4B6F000EA8
:104D0A004C6F480E4D6F840E4E6F0CEC18F0A8D005
:104D1A0001013E6B3F6B140E406F000E416F800E17
:104D2A00426F000E436F0E0E446F000E456F590E10
:104D3A00466F000E476F000E486F600E496F840E73
:104D4A004A6F000E4B6F000E4C6F200E4D6F840E93
:104D5A004E6F0CEC18F084D001013E6B3F6B1E0EB7
:104D6A00406F000E416F800E426F000E436F0E0EB1
:104D7A00446F000E456F590E466F000E476F000EC6
:104D8A00486F600E496F840E4A6F000E4B6F000E1B
:104D9A004C6F200E4D6F810E4E6F0CEC18F060D0E8
:104DAA0001013E6B3F6B1E0E406F000E416F800E7D
:104DBA00426F000E436F0E0E446F000E456F590E80
:104DCA00466F000E476F000E486F600E496F840EE3
:104DDA004A6F000E4B6F000E4C6F300E4D6F830EF4
:104DEA004E6F0CEC18F03CD00101020E006F38D067
:104DFA00000E00016B1902E1000E6A19D8B4D4D66C
:104E0A00000E6B1902E1010E6A19D8B4F1D6000E30
:104E1A006B1902E1020E6A19D8B40ED7000E6B198B
:104E2A0002E1030E6A19D8B42BD7000E6B1902E1FE
:104E3A00040E6A19D8B448D7000E6B1902E1050EA0
:104E4A006A19D8B465D7000E6B1902E1060E6A1901
:104E5A0083E0000E6B1902E1070E6A19A1E0C4D7BC
:104E6A009DEC0EF0BCEF1CF068C03EF169C03FF14A
:104E7A002B0E406F010E416F1AEC14F0746B75EC37
:104E8A0006F0A20E3E6F000E3F6F406B416B010EA3
:104E9A00426F50EC18F0980E3E6F000E3F6F406B59
:104EAA00020E416F010E426F50EC18F02B0E3E6F4E
:104EBA00010E3F6F1E0E406F020E416F010E426FD0
:104ECA0050EC18F08A0E3E6F000E3F6F406B040ED6
:104EDA00416F010E426F50EC18F087A003D03DECF1
:104EEA0018F001D0FAD70ED001010051000AD8B447
:104EFA0059EF1CF00051010AD8B4BCEF1CF0005164
:0A4F0A00020AB2E057EF1CF0FFD7D7
:1053440010EE15F0D00E006E010E016EFC0EF66E1E
:0E535400510EF76E000EF86E35EC15F01200DB
:104F1400000000000000005F00000007000700140C
:104F24007F147F14242A7F2A1223130864623649CB
:104F34005522500005030000001C224100004122BC
:104F44001C00082A1C2A0808083E080800503000E3
:104F54000008080808080030300000201008040287
:104F64003E5149453E00427F40004261514946213D
:104F740041454B311814127F1027454545393C4AA9
:104F840049493001710905033649494936064949F9
:104F9400291E003636000000563600000008142290
:104FA4004114141414144122140800020151090676
:104FB400324979413E7E1111117E7F494949363E7D
:104FC400414141227F4141221C7F494949417F0996
:104FD4000901013E414151327F0808087F00417FA9
:104FE40041002040413F017F081422417F4040405E
:104FF400407F0204027F7F0408107F3E4141413E0E
:105004007F090909063E4151215E7F091929464657
:105014004949493101017F01013F4040403F1F2080
:1050240040201F7F2018207F631408146303047832
:105034000403615149454300007F414102040810C3
:105044002041417F000004020102044040404040EE
:10505400000102040020545454787F4844443838F2
:1050640044444420384444487F3854545418087EF7
:10507400090102081454543C7F0804047800447D58
:1050840040002040443D00007F10284400417F4000
:10509400007C041804787C080404783844444438B8
:1050A4007C14141408081414187C7C08040408489C
:1050B40054545420043F4440203C4040207C1C2055
:1050C40040201C3C4030403C44281028440C5050A4
:1050D400503C4464544C44000836410000007F00B6
:1050E40000004136080008082A1C08081C2A080881
:1050F40033CE33CE33CE33CE33CE33CE33CE33CEA4
:1051040033CE33CE33CE33CE33CE33CE33CE33CE93
:1051140033CE33CE33CE33CE33CE33CE33CE33CE83
:1051240033CE33CE33CE33CE33CE33CE33CE33CE73
:1051340033CE33CE33CE33CE33CE33CE33CE33CE63
:1051440033CE33CE33CE33CE33CE33CE33CE33CE53
:1051540033CE33CE33CE33CE33CE33CE33CE33CE43
:1051640033CE33CE33CE33CE33CE33CE33CE33CE33
:1051740033CE33CE33CE33CE33CE33CE33CE33CE23
:1051840033CE33CE33CE33CE33CE33CE33CE33CE13
:1051940033CE33CE33CE33CE33CE33CE33CE33CE03
:1051A40033CE33CE33CE33CE33CE33CE33CE33CEF3
:1051B40033CE33CE33CE33CE33CE33CE33CE33CEE3
:1051C40033CE33CE33CE33CE33CE33CE33CE33CED3
:1051D40033CE33CE33CE33CE33CE33CE33CE33CEC3
:1051E40033CE33CE33CE33CE33CE33CE33CE33CEB3
:0851F40033CE33CE33CE33CEAF
:0451FC0000000000AF
:0452000000000000AA
:045204000000007F27
:0452080000000000A2
:0C520C005374617274202D205248300051
:0B521800524831203D20736B6970008C
:045223000000000087
:0A522700476F6F64206C75636B0025
:0252310000007B
:045233000000007FF8
:02523700000075
:10523900536B6970206C6576656C203D2030207059
:065249006F696E74730032
:02524F00080055
:0252510000005B
:1052530031206C6576656C203D203120706F696E5E
:025263007400D5
:0852650057656C636F6D650075
:02526D0000003F
:02526F0000003D
:0E52710052657374617274202D3E52483000F5
:06527F0053636F7265002D
:045285000000000025
:0752890046696E69736800BD
:04529000000000001A
:045294000000000016
:045298000000000012
:04529C00000000000E
:0452A000000000000A
:0452A4000000000006
:0452A8000000000002
:0452AC0000000000FE
:0452B00000000000FA
:0452B40000000000F6
:0452B80000000000F2
:0452BC0000000000EE
:0452C00000000000EA
:0452C40000000000E6
:0452C80000000000E2
:1052CC00FFFFFFFFFFFFFFFFFFFFFFFFFFFFFFFFE2
:1052DC00FFFFFFFFFFFFFFFFFFFFFFFFFFFFFFFFD2
:1052EC00FFFFFFFFFFFFFFFFFFFFFFFFFFFFFFFFC2
:1052FC0070020000840200007A020000FA01000033
:10530C00F001000004020000180200000E02000070
:10531C001C01000072000000A400000090000000BE
:10532C0022020000FA020000F002000098028D0137
:04533C00C4028D0119
:04534000A086010042
:020000040030CA
:0E0000001D037F7CF98B91FFFFC0FFE0FF40E6
:00000001FF
